S00B00003030332E7372656386
S113000012C025C03BC022C021C020C01FC01EC0DA
S11300101DC01CC01BC01AC019C018C017C016C010
S113002015C014C013C011241FBECFE5D4E0DEBF39
S1130030CDBF10E0A0E6B0E0E6ECF1E002C0059030
S11300400D92A436B107D9F73ED0BBC0D9CF1F92C9
S11300500F920FB60F9211248F93809162008B350B
S113006020F08AE08093620003C0865F8093620080
S11300708F910F900FBE0F901F9018951F920F92A3
S11300800FB60F9211242F938F939F93809160004A
S113009090916100813D27E0920738F08EE190E075
S11300A0909361008093600006C08C599F4F909399
S11300B06100809360009F918F912F910F900FBEEC
S11300C00F901F90189581B3837F81BB82B38C609E
S11300D082BBB99A85B78A6085BF8BB7806C8BBFAA
S11300E078940F2EF4E28F2EF8EB9F2EF8E0AF2ECB
S11300F0B12CF02D0F2EF4E6CF2ED12CE12CF12CC7
S1130100F02D209160003091610040E050E0C50185
S1130110B40135D029013A01CA01B901A7019601F8
S11301202ED089019A018091620090E0809FA00105
S1130130819F500D909F500D112420EA421A5108BE
S1130140441A550AC19A4115510551F080E090E0D6
S113015022E02A95F1F700C0019648175907C1F724
S1130160C1984114510469F280E090E022E02A959C
S1130170F1F700C0019648165906C1F7C2CFA1E2B3
S11301801A2EAA1BBB1BFD010DC0AA1FBB1FEE1F0D
S1130190FF1FA217B307E407F50720F0A21BB30B58
S11301A0E40BF50B661F771F881F991F1A9469F7D4
S11301B060957095809590959B01AC01BD01CF0130
S10901C00895F894FFCF3E
S10701C61E003200E1
S9030000FC
