:1000000012C019C018C017C016C015C014C013C044
:1000100012C011C010C00FC00EC00DC00CC00BC06C
:100020000AC009C008C011241FBECFE5D4E0DEBF5E
:10003000CDBF02D026C0E4CF84B3876084BB24E068
:1000400092E081E025BB3FE34DE053E0315040407A
:100050005040E1F700C0000095BB3FE34DE053E0A6
:10006000315040405040E1F700C0000085BB3FE305
:100070004DE053E0315040405040E1F700C00000F7
:06008000E1CFF894FFCF70
:00000001FF
