S00B00003030352E7372656384
S113000012C02CC02BC02AC029C028C027C026C0BB
S113001025C024C023C022C021C020C01FC01EC0D0
S11300201DC01CC01BC011241FBECFE5D4E0DEBF21
S1130030CDBF10E0A0E6B0E0EAEFF0E002C005902A
S11300400D92A837B107D9F720E0A8E7B0E001C0C6
S11300501D92A937B207E1F73ED04DC0D1CFCF935F
S1130060DA01811102C047E001C043E0611102C01E
S1130070C42F01C0C1E094B39F6094BB109749F1B1
S113008020E030E0682F70E0660F771F660F771F5F
S1130090660F771F605A7F4F909178009C0F9423CE
S11300A09093780095B3907F95BB55B39091780069
S11300B0FB01E90FF11D9081952B95BB80EE90E03B
S11300C00197F1F700C000002F5F3F4FA217B3075D
S11300D019F7CF9108958898909A809B06C040E0C4
S11300E050E161E080E0BBDFF8CF40E050E160E048
S10D00F080E0B5DFF2CFF894FFCFF3
S11300FA01030206040C080903060C0900000000A7
S10B010A0102040800000000DA
S9030000FC
