S00B00003030342E7372656385
S113000012C0D1C023C022C021C020C01FC01EC046
S1130010E1C01CC01BC01AC019C018C017C016C04C
S113002015C014C013C011241FBECFE5D4E0DEBF39
S1130030CDBF10E0A0E6B0E0E6E8F2E002C0059033
S11300400D92A236B107D9F7E3D01BC1D9CF11B8AD
S113005082E080B984E086BF089584EA86BF06B64C
S113006007FEFDCF089583B984E886BF06B607FE70
S1130070FDCF0895CF93C82FF0DF81B1887F8830FA
S113008089F48EE4F0DF81B1887F883169F48C2FA4
S11300908860E9DF81B1887F883241F484E986BFD2
S11300A081E005C080E003C080E001C080E0CF9122
S11300B00895CF93C82FDEDF00008C2F8460DADF31
S11300C000008C2F8B7FD6DF80E18A95F1F700C08A
S11300D0CF910895CF93DF93C82FD62F807F862B9F
S11300E0E8DF20E1C29FC00111248D2BE2DFDF9104
S11300F0CF91089583ED90E30197F1F700C00000DC
S113010080E3D7DF84E694E00197F1F700C00000B4
S113011080E3CFDF84E694E00197F1F700C00000AC
S113012080E3C7DF92E39A95F1F780E2C2DF60E0F3
S113013088E2D0DF60E08CE0CDDF60E081E0CADF00
S113014083EF91E00197F1F700C0000060E086E0E2
S1130150C1DF60E082E0BEDF83EF91E00197F1F759
S113016000C000000895CF93DF9300D0CDB7DEB771
S1130170198290E49A83FE01E80FF11D8181860FB4
S113018060E08068A7DF0F900F90DF91CF91089512
S113019061E0A0DF0895CF93C42FE5DF61E08C2FE9
S11301A099DFCF9108951F920F920FB60F921124E9
S11301B08F9380916000843120F48F5F809360007E
S11301C003C081E0809360008F910F900FBE0F9069
S11301D01F9018951F920F920FB60F9211242F9310
S11301E03F938F939F938091600090E09C01220F36
S11301F0331F820F931F880F991F9BBD8ABD9F9148
S11302008F913F912F910F900FBE0F901F901895D3
S11302101EDF70DFB99A88EC90E097BD86BD8AE056
S113022090E09BBD8ABD8FB5806C8FBD8EB5826119
S11302308EBD84E089BF8A9885B7836085BF8BB7FC
S113024080648BBF78941DECD0916000D19FC12D48
S11302501124C695C695C69540E34C0F66E080E030
S11302609ADFCC0F8C2F880F880FC80F8D2F8C1B13
S1130270805D8EDF83EF91E00197F1F700C000000D
S1090280E3CFF894FFCF68
S1050286010071
S9030000FC
