:1000000012C024C023C022C021C020C01FC01EC0F7
:100010001DC01CC01BC01AC019C018C017C016C014
:1000200015C014C013C011241FBECFE5D4E0DEBF3D
:10003000CDBF10E0A0E6B0E0E0E4F3E002C0059040
:100040000D92A43CB107D9F7E5D078C1D9CF11B84A
:1000500082E080B984E086BF089584EA86BF06B650
:1000600007FEFDCF089583B984E886BF06B607FE74
:10007000FDCF0895CF93C82FF0DF81B1887F8830FE
:1000800089F48EE4F0DF81B1887F883169F48C2FA8
:100090008860E9DF81B1887F883241F484E986BFD6
:1000A00081E005C080E003C080E001C080E0CF9126
:1000B0000895CF93C82FDEDF00008C2F8460DADF35
:1000C00000008C2F8B7FD6DF80E18A95F1F700C08E
:1000D000CF910895CF93DF93C82FD62F807F862BA3
:1000E000E8DF20E1C29FC00111248D2BE2DFDF9108
:1000F000CF91089583ED90E30197F1F700C00000E0
:1001000080E3D7DF84E694E00197F1F700C00000B8
:1001100080E3CFDF84E694E00197F1F700C00000B0
:1001200080E3C7DF92E39A95F1F780E2C2DF60E0F7
:1001300088E2D0DF60E08CE0CDDF60E081E0CADF04
:1001400083EF91E00197F1F700C0000060E086E0E6
:10015000C1DF60E082E0BEDF83EF91E00197F1F75D
:1001600000C000000895CF93DF9300D0CDB7DEB775
:10017000198290E49A83FE01E80FF11D8181860FB8
:1001800060E08068A7DF0F900F90DF91CF91089516
:10019000CF93C42FE8DF61E08C2F9CDFCF910895CF
:1001A000CF93DF93EA01DFDF8881882331F0219646
:1001B00061E090DF89918111FBCFDF91CF910895AC
:1001C000EF92FF920F931F93CF93DF930F2EF0E6E2
:1001D000EF2EF0E0FF2EF02DC0E411C060E08C2F78
:1001E00079DF61E0F80181918F0174DFCF5FCD137A
:1001F000F5CFF8E0EF0EF11CCD2FD03821F0D8E08C
:10020000DC0F8701EBCFDF91CF911F910F91FF9012
:10021000EF9008951CDF6EDFD3DF40EA50E060E02E
:1002200080E0BEDF2FE78AE196E0215080409040D9
:10023000E1F700C0000060E081E04CDF83EF91E077
:100240000197F1F700C0000049EB50E060E080E06A
:10025000A7DF60E088E13EDF89EF90E00197F1F7EA
:1002600000C0000060E088E135DF89EF90E0019791
:10027000F1F700C0000060E088E12CDF89EF90E03A
:100280000197F1F700C0000060E088E123DF89EF0B
:1002900090E00197F1F700C0000060E088E11ADF0C
:1002A00089EF90E00197F1F700C000009FE72AE195
:1002B00086E0915020408040E1F700C00000C0E09F
:1002C0004C2F6C2F81E064DFCF5FC830C9F79FE708
:1002D0002AE186E0915020408040E1F700C0000014
:1002E00060E08CE1F7DE89EF90E00197F1F700C064
:1002F000000060E08CE1EEDE89EF90E00197F1F71D
:1003000000C0000060E08CE1E5DE89EF90E001973D
:10031000F1F700C0000060E08CE1DCDE89EF90E0E6
:100320000197F1F700C0000060E08CE1D3DE89EFB7
:1003300090E00197F1F700C00000FFCFF894FFCFE5
:1003400004041F0E1504000004040E04041F000022
:100350001E12121E12121E00081E04031F0C130090
:1003600018141814181000001E12121E12121E006B
:10037000000000000000000000000000000000007D
:100380004C43443136303220436F6D6D616E6420D2
:100390003230323530343239005042323330353138
:0403A00030323300C4
:00000001FF
