:1000000012C02CC098C02AC029C028C027C026C052
:1000100025C024C023C022C021C020C01FC01EC0D4
:100020001DC01CC01BC011241FBECFE5D4E0DEBF25
:10003000CDBF10E0A0E6B0E0E6E9F1E002C0059037
:100040000D92A037B107D9F720E0A0E7B0E001C0DA
:100050001D92A237B207E1F702D09BC0D1CFCF9358
:10006000DF93CDB7DEB764970FB6F894DEBF0FBE4F
:10007000CDBF80E1E0E6F0E0DE01119601900D9247
:100080008A95E1F78EE0898B8DE08A8B8BE08B8BF4
:1000900087E08C8B8FE084BB8FEF87BB8B9885B715
:1000A0008C6085BF8BB780688BBF78947E0185E1BB
:1000B000E80EF11C40917000509171008E010F5EAE
:1000C0001F4F85B38F6085BB9A01ADECBCEC55D05A
:1000D0009695879596958795969587959C01220F7D
:1000E000331F880F991F880F991F880F991F820F40
:1000F000931FFA01E81BF90B81E090E08C0F9D1F24
:10010000E80FF91F808188BBF80181918F0185BBC1
:100110009A0133D0AC01569547955695479556951B
:10012000479581EE94E00197F1F700C00000EE15CD
:10013000FF0539F6BFCF1F920F920FB60F92112411
:100140002F938F939F9380917000909171008F30C7
:1001500027E2920730F4019690937100809370002B
:1001600004C010927100109270009F918F912F9196
:100170000F900FBE0F901F901895A29FB001B39FD4
:10018000C001A39F01D0B29F700D811D1124911D4C
:060190000895F894FFCF72
:10019600FC60DAF266B6BEE0FEF6EE3E9C7A9E8E15
:00000001FF
