:1000000012C02CC057C02AC029C028C027C026C093
:1000100025C024C023C022C021C020C01FC01EC0D4
:100020001DC01CC01BC011241FBECFE5D4E0DEBF25
:10003000CDBF10E0A0E6B0E0E4EEF0E002C0059035
:100040000D92A037B107D9F720E0A0E7B0E001C0DA
:100050001D92A137B207E1F702D042C0D1CFCF93B2
:10006000DF93CDB7DEB760970FB6F894DEBF0FBE53
:10007000CDBF80E1E0E6F0E0DE01119601900D9247
:100080008A95E1F78FEF87BB81E084BB15BA8B9827
:1000900085B78C6085BF8BB780688BBF7894809163
:1000A0007000E1E0F0E0EC0FFD1FE80FF11D808132
:1000B00088BBF5CF1F920F920FB60F9211248F932A
:1000C00080917000843020F48F5F8093700002C0B4
:1000D000109270008F910F900FBE0F901F90189587
:0400E000F894FFCFC2
:1000E400FC60DAF266B6BEE0FEF6EE3E9C7A9E8EC8
:00000001FF
