:1000000012C083C12BC02AC029C028C027C026C067
:10001000B2C124C023C022C021C020C01FC01EC046
:100020001DC01CC01BC011241FBECFE5D4E0DEBF25
:10003000CDBF10E0A0E6B0E0ECE8FAE002C0059029
:100040000D92AA37B107D9F720E0AAE7B0E001C0C6
:100050001D92AD37B207E1F7ACD116C5D1CF11B8BB
:1000600082E080B984E086BF089584EA86BF06B640
:1000700007FEFDCF089583B984E886BF06B607FE64
:10008000FDCF0895CF93C82FF0DF81B1887F8830EE
:1000900089F48EE4F0DF81B1887F883169F48C2F98
:1000A0008860E9DF81B1887F883241F484E986BFC6
:1000B00081E005C080E003C080E001C080E0CF9116
:1000C0000895CF93C82FDEDF00008C2F8460DADF25
:1000D00000008C2F8B7FD6DF80E18A95F1F700C07E
:1000E000CF910895CF93DF93C82FD62F807F862B93
:1000F000E8DF20E1C29FC00111248D2BE2DFDF91F8
:10010000CF91089583ED90E30197F1F700C00000CF
:1001100080E3D7DF84E694E00197F1F700C00000A8
:1001200080E3CFDF84E694E00197F1F700C00000A0
:1001300080E3C7DF92E39A95F1F780E2C2DF60E0E7
:1001400088E2D0DF60E08CE0CDDF60E081E0CADFF4
:1001500083EF91E00197F1F700C0000060E086E0D6
:10016000C1DF60E082E0BEDF83EF91E00197F1F74D
:1001700000C000000895CF93DF9300D0CDB7DEB765
:10018000198290E49A83FE01E80FF11D8181860FA8
:1001900060E08068A7DF0F900F90DF91CF91089506
:1001A00061E0A0DF0895CF93C42FE5DF61E08C2FDD
:1001B00099DFCF910895CF93DF93EA01DCDF888147
:1001C000882331F0219661E08DDF89918111FBCF89
:1001D000DF91CF91089538E080E003C0915011F491
:1001E00003C09FEF879BFACF9AE09A95F1F720B36F
:1001F000221F2227221F9FEF02C0915011F08799E2
:10020000FCCF880F822B315061F708950F931F9315
:10021000CF93DF938C018F9A979887E893E10197AA
:10022000F1F700C00000979A96E09A95F1F700C0A8
:100230008F9886E08A95F1F700C0879916C09FEFE6
:1002400002C0915039F0879BFCCF9FEF04C09150C2
:1002500011F403C09FEF8799FACFE8010B5F1F4F9E
:10026000BADF8993C017D107D9F7DF91CF911F91DA
:100270000F9108958E9A8D98969A86E08A95F1F757
:1002800000C0969888E293E207C0019729F4859907
:1002900006C062E070E009C0859BF7CFF8CF62E04E
:1002A00070E06F5F7F4F8599FCCF80E090E0EFD2E8
:1002B00020E030E040EA50E478D320E030E048EC41
:1002C00052E451D220E030E048E851E46ED3B3D29A
:1002D000CB010895B99A88EC90E097BD86BD8AE07D
:1002E00090E09BBD8ABD8FB5806C8FBD8EB582615D
:1002F0008EBD89B7846089BF8A9885B7836085BFC2
:100300008BB780648BBF789408951F920F920FB6BD
:100310000F9211248F939F9390917A0081E0892707
:1003200080937A00809160008E3120F48F5F8093FB
:10033000600003C081E08093600080917B00909119
:100340007C008330910534F4019690937C00809377
:100350007B0004C010927C0010927B0083ED90E340
:100360000197F1F700C000009F918F910F900FBE91
:100370000F901F9018951F920F920FB60F92112495
:100380002F933F938F939F938091600090E09C0107
:10039000220F331F820F931F880F991F9BBD8ABDA9
:1003A0009F918F913F912F910F900FBE0F901F90B3
:1003B0001895CF93DF9300D000D01F92CDB7DEB752
:1003C00084B3876084BB86DF4ADE9CDEFE01319603
:1003D00085E0DF011D928A95E9F7B99A88EC90E0F3
:1003E00097BD86BD8FE090E09BBD8ABD8FB5806CC8
:1003F0008FBD8EB582618EBD89B7846089BF8A98B2
:1004000085B7836085BF8BB780648BBF7894EE24FB
:10041000E3946894882481F80F2EFAE05F2EF02D83
:100420000F2EF4E16F2EF02D0F2EFEE17F2EF02D1A
:100430000F2EF8E24F2EF02D0F2EFDEC9F2EF02DFB
:100440000F2EF1E6AF2EF0E0BF2EF02D0F2EF6E6C8
:10045000CF2EF0E0DF2EF02DCE010196D7DE0ADFA1
:100460008C0180917B0090917C00009789F510921F
:100470007A004B812D8130E059818A8190E0850F8F
:10048000911D840F911D5C81850F911D28173907DF
:10049000D9F5483218F0E092600009C04A3018F4EB
:1004A0007092600004C0842D841B80936000809152
:1004B000600090E09C01220F331F820F931F880F72
:1004C000991F9BBD8ABD0436110508F438C141C18E
:1004D0008130910519F4709260000AC08230910554
:1004E00019F46092600004C0039711F45092600008
:1004F0008091600090E09C01220F331F820F931FB8
:10050000880F991F9BBD8ABD0436110510F0882DF8
:1005100001C08E2D85BB2D8130E049818A8190E01C
:10052000840F911D4B81840F911D4C81840F911D6F
:100530002817390709F052C04DE650E060E080E02E
:100540003ADE8B81899D812D11248695869586952D
:10055000899D912D1124969596959695990F292F01
:10056000220F220F920F891B805D1ADE8B81899DDD
:10057000912D1124969596959695990F292F220FD6
:10058000220F920F891B805D0BDE40E750E066E092
:1005900080E011DE8981899D812D112486958695C3
:1005A0008695899D912D1124969596959695990FEE
:1005B000292F220F220F920F891B805DF1DD898187
:1005C000899D912D1124969596959695990F292F91
:1005D000220F220F920F891B805DE2DD30906000B8
:1005E00043E750E06CE080E0E6DD80917B00909195
:1005F0007C00892BD1F4399CF12C1124F694F694CB
:10060000F69440E34F0D6EE080E0CDDDFF0C8F2DC2
:10061000880F880FF80E832D8F19805DC1DD83EF61
:1006200091E00197F1F700C0000080917B0090916C
:100630007C00019731F443E36EE080E0B4DD80E3B9
:10064000AFDD80917B0090917C00029731F442E312
:100650006EE080E0A8DD80E3A3DD80917B009091D7
:100660007C00039731F441E36EE080E09CDD80E3A1
:1006700097DD0436110510F0882D01C08E2D85BB45
:1006800080917B0090917C00892B19F04C2D5D2D81
:1006900002C04A2D5B2D60E08E2D8DDD46E750E0D7
:1006A00068E08E2D88DD0115110599F10F2EFFE010
:1006B000FF2EF02D9801ADECBCECDAD19695879524
:1006C00096958795969587959C01220F331F880FE5
:1006D000991F880F991F880F991F820F931FA801D8
:1006E000481B590B405D6F2D8E2D5DDDFA949801EE
:1006F000ADECBCECBDD18C01169507951695079510
:100700001695079501151105A9F699E09F1528F092
:100710000CC00F2EFFE0FF2EF02D40E26F2D8E2D2E
:1007200042DDFA94A9E0AF15C0F3BFE32DE083E00A
:10073000B15020408040E1F700C000008DCEE5BA06
:1007400080917B0090917C00009709F0C1CE8E2DA6
:10075000E1CE85BA80917B0090917C00009709F0F2
:10076000B7CE882DD7CE0CD0E6C0DED040F0D5D0A5
:1007700030F021F45F3F19F0C7C0511110C1CAC059
:10078000EBD098F39923C9F35523B1F3951B550B7F
:10079000BB27AA2762177307840738F09F5F5F4F54
:1007A000220F331F441FAA1FA9F333D00E2E3AF095
:1007B000E0E830D091505040E695001CCAF729D0AF
:1007C000FE2F27D0660F771F881FBB1F26173707FE
:1007D0004807AB07B0E809F0BB0B802DBF01FF272E
:1007E00093585F4F2AF09E3F510568F08DC0D7C0E7
:1007F0005F3FECF3983EDCF3869577956795B79568
:10080000F7959F5FC9F7880F911D9695879597F982
:100810000895E1E0660F771F881FBB1F62177307FB
:100820008407BA0720F0621B730B840BBA0BEE1F10
:1008300088F7E095089598D088F09F5790F0B92FE9
:100840009927B751A0F0D1F0660F771F881F991F25
:100850001AF0BA95C9F712C0B13081F09FD0B1E05B
:1008600008959CC0672F782F8827B85F39F0B93F6B
:10087000CCF3869577956795B395D9F73EF4909527
:100880008095709561957F4F8F4F9F4F0895E894A5
:1008900009C097FB3EF490958095709561957F4FC8
:1008A0008F4F9F4F9923A9F0F92F96E9BB27939576
:1008B000F695879577956795B795F111F8CFFAF486
:1008C000BB0F11F460FF1BC06F5F7F4F8F4F9F4FB7
:1008D00016C0882311F096E911C0772321F09EE815
:1008E000872F762F05C0662371F096E8862F70E07B
:1008F00060E02AF09A95660F771F881FDAF7880F55
:100900009695879597F9089597F99F6780E870E025
:1009100060E008959FEF80EC089500240A94161675
:10092000170618060906089500240A9412161306DD
:10093000140605060895092E0394000C11F488236B
:1009400052F0BB0F40F4BF2B11F460FF04C06F5F87
:100950007F4F8F4F9F4F089557FD9058440F551F5D
:1009600059F05F3F71F04795880F97FB991F61F031
:100970009F3F79F087950895121613061406551FA8
:10098000F2CF4695F1DF08C0161617061806991F14
:10099000F1CF86957105610508940895E894BB2709
:1009A00066277727CB0197F908950BD0C4CFB5DF21
:1009B00028F0BADF18F0952309F0A6CFABCF1124A9
:1009C000EECFCADFA0F3959FD1F3950F50E0551FEE
:1009D000629FF001729FBB27F00DB11D639FAA2794
:1009E000F00DB11DAA1F649F6627B00DA11D661FE3
:1009F000829F2227B00DA11D621F739FB00DA11D04
:100A0000621F839FA00D611D221F749F3327A00DBD
:100A1000611D231F849F600D211D822F762F6A2F59
:100A200011249F5750408AF0E1F088234AF0EE0FDE
:100A3000FF1FBB1F661F771F881F91505040A9F7EB
:100A40009E3F510570F060CFAACF5F3FECF3983E18
:100A5000DCF3869577956795B795F795E7959F5F52
:100A6000C1F7FE2B880F911D9695879597F90895EC
:100A7000A29FB001B39FC001A39F01D0B29F700D90
:0C0A8000811D1124911D0895F894FFCFF2
:100A8C00014175746F004D616E75616C00543A00D4
:0A0A9C00483A00533A00443A0000C3
:00000001FF
