S00B00003030312E7372656388
S11300001CC036C035C034C033C032C031C030C06B
S11300102FC08FC12DC02CC02BC02AC029C028C01E
S113002027C026C025C044C049C044C049C044C0FC
S113003049C04AC04BC04CC04DC011241FBECFE5BF
S1130040D4E0DEBFCDBF10E0A0E6B0E0EEE8F3E020
S113005002C005900D92AA37B107D9F720E0AAE7AC
S1130060B0E001C01D92AC37B207E1F739D18DC1C0
S1130070C7CFB89890917A0086B3817080937A0044
S1130080911107C0813029F480917B008F5F8093A8
S11300907B00089584B3876084BBE0917B008E2F3E
S11300A090E08A309105C0F4FC01ED5EFF4F0994A5
S11300B0A89A0895A99A0895AA9A0895A8980895BF
S11300C0A9980895AA980895A89A0895A99A0895B0
S11300D0AA9A0895AA98089510927B00089511B8D9
S11300E082E080B984E086BF089584EA86BF06B6BC
S11300F007FEFDCF089583B984E886BF06B607FEE0
S1130100FDCF0895CF93C82FF0DF81B1887F883069
S113011089F48EE4F0DF81B1887F883169F48C2F13
S11301208860E9DF81B1887F883241F484E986BF41
S113013081E005C080E003C080E001C080E0CF9191
S11301400895CF93C82FDEDF00008C2F8460DADFA0
S113015000008C2F8B7FD6DF80E18A95F1F700C0F9
S1130160CF910895CF93DF93C82FD62F807F862B0E
S1130170E8DF20E1C29FC00111248D2BE2DFDF9173
S1130180CF91089583ED90E30197F1F700C000004B
S113019080E3D7DF84E694E00197F1F700C0000024
S11301A080E3CFDF84E694E00197F1F700C000001C
S11301B080E3C7DF92E39A95F1F780E2C2DF60E063
S11301C088E2D0DF60E08CE0CDDF60E081E0CADF70
S11301D083EF91E00197F1F700C0000060E086E052
S11301E0C1DF60E082E0BEDF83EF91E00197F1F7C9
S11301F000C000000895CF93DF9300D0CDB7DEB7E1
S1130200198290E49A83FE01E80FF11D8181860F23
S113021060E08068A7DF0F900F90DF91CF91089581
S1130220CF93DF93EA01E7DF8881882331F02196B9
S113023061E098DF89918111FBCFDF91CF9108951F
S11302400F931F93CF93DF9300D000D01F92CDB7AD
S1130250DEB78E010F5F1F4F85E0F80111928A957A
S1130260E9F780917B002DEC829F912D11249695C6
S113027096959695492F440F342F330F330F340F2F
S1130280F82FF31B3F2F305D3B83929F212D1124C8
S1130290269526952695220F322F330F330F230FE1
S11302A0921B905D9A8399E2899F812D11248295F6
S11302B08F70805D8983F89442E750E061E080E0CC
S11302C0AFDFA80168E080E0ABDF78940F900F9077
S11302D00F900F900F90DF91CF911F910F91089580
S11302E0FEDE50DF83E882BF81E089BF82E083BF06
S11302F078940F2EFCE6EF2EF0E0FF2EF02DC0E6F2
S1130300D0E00CE610E08A819B81892B41F4F8014E
S1130310808191819B838A83E881F9810995249660
S11303200E5F1F4FCE15DF0571F784E68150F1F79C
S1130330E6CF1F920F920FB60F9211242F933F9383
S11303408F939F93EF93FF9383E882BF81E089BFEC
S113035082E083BFE0E6F0E02CE630E08281938126
S1130360181619061CF40197938382833496E217B6
S1130370F307A1F7FF91EF919F918F913F912F91F7
S11103800F900FBE0F901F901895F894FFCFAA
S113038E390003004A000700200113000300070090
S10D039E130074696D65733A0000E2
S9030000FC
