:1000000012C035C020C01FC01EC01DC01CC01BC0F8
:100010001AC019C018C017C016C015C014C013C02C
:1000200012C011C010C011241FBECFE5D4E0DEBF46
:10003000CDBF20E0A0E6B0E001C01D92A136B2071E
:10004000E1F726D062C0DCCF11B882E080B984E04D
:1000500086BF089584EA86BF06B607FEFDCF0895E1
:1000600083B984E886BF06B607FEFDCF08951F92C8
:100070000F920FB60F9211248F93809160008F5FC3
:10008000809360008F910F900FBE0F901F90189576
:100090002FE38DE093E0215080409040E1F700C0D5
:1000A000000084B38F7C84BB85B3806385BBCCDFC9
:1000B0008A9885B7836085BF8BB780648BBF78943F
:1000C00016E6D4E804E9C0E8C5DF81B1887F88304E
:1000D00089F413B9D6BF06B607FEFDCF81B1887F7C
:1000E000883141F480916000BBDF81B1887F883224
:1000F00009F406BFC6BF2FE986E891E02150804091
:0E0100009040E1F700C00000DFCFF894FFCF81
:00000001FF
