:1000000012C02CC02BC02AC029C028C027C026C0BF
:1000100025C024C023C022C021C020C01FC01EC0D4
:100020001DC01CC01BC011241FBECFE5D4E0DEBF25
:10003000CDBF10E0A0E6B0E0E2ECF2E002C0059037
:100040000D92A037B107D9F720E0A0E7B0E001C0DA
:100050001D92A037B207E1F7C0D031C1D1CF84EAF9
:1000600086BF06B607FEFDCF089583B984E886BF34
:1000700006B607FEFDCF089584EC86BF06B607FEE0
:10008000FDCF83B10895CF93C82FE9DF81B1887F79
:10009000883089F48EE4E9DF81B1887F883169F4A2
:1000A0008C2F8860E2DF81B1887F883241F484E957
:1000B00086BF81E005C080E003C080E001C080E031
:1000C000CF910895CF93C82FDEDF83E08A95F1F7B3
:1000D00000008C2F8460D7DF83E08A95F1F7000061
:1000E0008C2F8B7FD0DF86EA8A95F1F700C0CF9105
:1000F0000895CF93DF93C82FD62F807F862BE2DF22
:1001000020E1C29FC00111248D2BDCDFDF91CF9154
:1001100008952FE986E891E0215080409040E1F772
:1001200000C0000080E3CEDF81EF9BE20197F1F792
:1001300000C0000080E3C6DF81EF9BE20197F1F78A
:1001400000C0000080E3BEDF86E791E00197F1F791
:1001500000C0000080E2B6DF60E088E2CADF60E055
:100160008CE0C7DF60E081E0C4DF87E893E10197BE
:10017000F1F700C0000060E086E0BBDF60E082E0F5
:10018000B8DF87E893E10197F1F700C00000089518
:10019000CF93DF9300D0CDB7DEB7198290E49A8376
:1001A000FE01E80FF11D8181860F60E08068A1DF0C
:1001B0000F900F90DF91CF910895CF93DF93EA01D5
:1001C000E7DF8881882331F0219661E092DF899111
:1001D0008111FBCFDF91CF910895CF93DF9300D0B2
:1001E00000D0CDB7DEB716BE84B38F7C84BB85B399
:1001F000806385BB86E682B98CDFF12C0F2EF4EC90
:10020000DF2EF02D6894EE24E7F88E010F5F1F4F6C
:1002100033DF81B1887F803639F42EDF81B1887F6A
:10022000803811F4F3B0D6BEE6BE4F2D50E0FE018B
:1002300035969A01ADECBCEC36D09695879596959F
:100240008795969587959C01220F331F880F991FDC
:10025000880F991F880F991F820F931F9A01281BDF
:10026000390BC901805D82939A011DD0AC0156956E
:1002700047955695479556954795E017F107C9F666
:1002800040E650E061E080E098DFA80163E081E0B3
:1002900094DF3FE986E891E0315080409040E1F7FB
:1002A00000C00000B5CFA29FB001B39FC001A39FC3
:1002B00001D0B29F700D811D1124911D0895F894F5
:0202C000FFCF6E
:1002C200546F7563687061642054696D65733A0098
:00000001FF
