:1000000012C02CC02CC02AC029C028C027C026C0BE
:1000100025C024C023C022C021C020C01FC01EC0D4
:100020001DC01CC01BC011241FBECFE5D4E0DEBF25
:10003000CDBF10E0A0E6B0E0E8EFF1E002C005902F
:100040000D92AA3DB107D9F720E0AAEDB0E001C0BA
:100050001D92AC3DB207E1F76DD0CCC0D1CF1F925D
:100060000F920FB60F9211242F933F934F935F93EC
:100070006F937F938F939F93AF93BF9386B597B5FD
:10008000883C910528F488EA91E697BD86BD13C0A7
:1000900046B557B52091DA003091DB00ADECBCECF1
:1000A0009DD0929582958F7089279F708927481BD4
:1000B000590B57BD46BD86B597B59093DB0080932D
:1000C000DA0086B597B5969587959BBD8ABDBF9199
:1000D000AF919F918F917F916F915F914F913F91E0
:1000E0002F910F900FBE0F901F901895CF93DF9315
:1000F000EB019C0140E050E060E472E48FE090E0AE
:100100004BD037BD26BD86B597B5969587959BBDD7
:100110008ABD209751F0BE018FEC97E00197F1F76F
:1001200000C0000061507109B9F71BBC1ABCDF9117
:10013000CF910895B99A88EA91E697BD86BD9093CC
:10014000DB008093DA0086B597B5969587959BBDC1
:100150008ABD8FB5806C8FBD8EB582618EBD8B9848
:1001600085B78C6085BF8BB780688BBF7894C0E6FD
:10017000D0E000EA10E00F2EFAE9EF2EF0E0FF2EBB
:10018000F02D69917991F801819191918F01AEDF04
:10019000CE15DF05B1F7FFCFA1E21A2EAA1BBB1BBC
:1001A000FD010DC0AA1FBB1FEE1FFF1FA217B30743
:1001B000E407F50720F0A21BB30BE40BF50B661F59
:1001C000771F881F991F1A9469F76095709580951D
:1001D00090959B01AC01BD01CF010895A29FB00194
:1001E000B39FC001A39F01D0B29F700D811D112448
:0801F000911D0895F894FFCF62
:1001F800F401F401F401F401F401F401F401F4014F
:10020800EE02FA00E803EE02FA00E803FA00FA0048
:10021800FA00FA00F401F401FA00FA00FA00FA0010
:10022800F401F401E803F401DC05E803F401DC055A
:10023800060126014A010601060126014A010601B6
:100248004A015D0188014A015D0188018801B80100
:1002580088015D014A0106018801B80188015D0134
:0A0268004A0106010601C400060168
:00000001FF
