:1000000012C019C018C017C016C015C014C013C044
:1000100012C011C010C00FC00EC00DC00CC00BC06C
:100020000AC009C008C011241FBECFE5D4E0DEBF5E
:10003000CDBF02D04DC0E4CF84B3876084BBFBEF5B
:10004000EDEF7EEF6AE056E04EE0F5BB24E630E0EF
:1000500005C00197F1F72150310919F088EE93E0BE
:10006000F8CFE5BB24E630E005C00197F1F7215059
:10007000310919F088EE93E0F8CF75BB24E630E043
:1000800005C00197F1F72150310919F088EE93E08E
:10009000F8CF65BB2FE986E891E021508040904081
:1000A000E1F700C0000055BB2FE986E891E0215040
:1000B00080409040E1F700C0000045BB2FE986E892
:1000C00091E0215080409040E1F700C00000BDCF9A
:0400D000F894FFCFD2
:00000001FF
